:1000030080F01010D0406020202080C0C040C0E0AD
:10001300F0F8FE9FCDF5E1F0F8F8FCF4F0F0F8D835
:10002300C84000000000008000C0E0F8F0F8FCFECB
:10003300FCFCFEFEFFFCFEFFFEFEFFFFFCFEFAF8EB
:10004300FCE4F0D08000000000000000000000008D
:10005300000080C0C0E0E0F0E0F0F0F8F8E8E8A0CD
:100063000B1E1E3F7DBCB8B8BCDCDDFFFEFF7F7FEF
:10007300FFFFFFFF7F5F5F571797C7FFFFFFFFFF7D
:10008300FFFF66F4FCFEFCFFFFFFFFFFFFFF7F3F68
:10009300DF0F0F0703030101C1E1F1FBFFFFFFFFC7
:1000A300FFFFFFFFFDC900000000000000C0F0FCDF
:1000B300FEFFFFFF0F070307070F0F1F1F1717058C
:1000C3000001030307070F1F0F1F0D090100F0F8BD
:1000D300FCFCFCFFFFFFFFBF9FDFFFFFDFEFFFFB2A
:1000E300FDFFFFFFFFFFFF7F3F1F171B1D3E3F75F8
:1000F30065F6F0F0F0F4FFFFFFFFFFFFFFFFFBDF0C
:10010300EFE3F3E0E0F1F8E0F0F8F0FCFFFFFFFFCE
:10011300FFFF3F0F00000000000000000000000090
:10012300000082029EF3FDEFE77070383C3C3F1FF6
:100133001F1F3F3F3F7F7F7F7F7F7F7F7F7F3F3FCC
:100143003F1F1F0F0F0F0F0F0787C6666EBEFEFC04
:100153000C0C04040D01030F1F1F0F1F1F3F1F1F54
:100163003F1F3F3F3F7F7F7F7FEFEFE7E7676321DE
:10017300610000000000000000000000000000001B
:10018300000003030101C0C000000000C0C04040E4
:1001930040C080000080C04040404000C0C040409C
:1001A30040C0800000C0C04040404101C2C3414440
:1001B3004040000080C0404040404000C0C00000BC
:1001C3000000C0C00004C6C20303070500C0C0008E
:1001D300C0C0000080C0400000000000000000001C
:1001E300000000707C1F13131F7C70007F7F44444A
:1001F300447F3B001F3F6040404040007F7F4040C2
:1002030040603F1F007F7F44444440007F7F0404DD
:100213000400001F3F604444447C7C007F7F04044F
:1002230004047F7F00007F7F00404040407F3F0009
:100233007F7F0E1B316040000000000000000000C3
:1003CC001203517FFF1203FF1203927F551203FF9A
:1003DC001203927FAA1203FF120392E4FF1203FF8F
:1003EC00120243120392E4FF1203FF1202F51204ED
:0303FC009480D01A
:1003510012046D7F647E001203967FE21204337FE4
:100361002C1204337F2E1204337F2F1204337F2586
:100371001204337F811204337F1A1204337FA212D5
:1003810004337FC81204337FA01204337FAF020409
:010391003338
:0203FF008F0865
:10040100E4F509C2B3E5091204307F10120433E4A4
:10041100FF120433E4F50AAF08120450050AE50A95
:0E042100C3948440F20509E509C3940940D54F
:01042F0022AA
:1002F500E4F50CF50DF508F509C2B3E5091204306E
:100305007F10120433E4FF120433E4F50AF50B748D
:1003150003250DF5827400350CF583E493FF120473
:1003250050050DE50D7002050C050BE50B7002057A
:100335000AC39460E50A940040D50509E5097002F1
:0B0345000508C39406E508940040AED4
:01035000228A
:10024300E4F508F509C2B3E50924B0FF1204337FCE
:1002530010120433E4FF1204337FFF120450E4F559
:100263000AF50BE4FF120450050BE50B7002050AB7
:10027300C3945EE50A940040EA7FFF120450050927
:10028300E50970020508C39405E508940040B6C269
:10029300B37FB51204337F10120433E4FF12043327
:1002A3007FFF120450E4F50AF50B7F80120450051A
:1002B3000BE50B7002050AC3945EE50A940040EA5D
:1002C3007FFF120450C2B37FB81204337F101204AD
:1002D30033E4FF120433E4F50AF50B7F01120450F3
:1002E300050BE50B7002050AC39460E50A94004010
:0102F300EA20
:0102F40022E7
:0304300024B0FFF6
:10043300C2B5C2B3E4FEC2B6EF30E704D2B780025E
:0C044300C2B7D2B6EF25E0FF0EBE08EAFB
:01044F00228A
:10045000D2B5C2B3E4FEC2B6EF30E704D2B7800231
:0C046000C2B7D2B6EF25E0FF0EBE08EADE
:01046C00226D
:080392007FE87E037D007C0082
:08039A008F0B8E0A8D098C08FF
:1003A200900000AF82AE83E4FCFDAB0BAA0AA90960
:1003B200A808D31204834011E4FFFE0FBF00010E10
:0903C200BE01F8BFF4F5A380DAD6
:0103CB00220F
:10046D00C2B47F027E00120396D2B47F047E007D5B
:06047D00007C0002039A5E
:0D04940030B2097F0A7E0012039680F42228
:030000000204A156
:0C04A100787FE4F6D8FD75810D0203CCD5
:10048300EB9FF5F0EA9E42F0E99D42F0E89C45F0CF
:010493002246
:00000001FF
